:1000000072C01AC28BC08AC089C088C087C086C02F
:1000100085C084C083C082C081C080C07FC07EC0D4
:100020007DC07CC07BC02403420041004B004100E6
:1000300020004D00490044004900200050004C00C1
:100040004100590045005200200020036F0070005D
:1000500065006E0068006100720064007700610056
:10006000720065002E0072006F000403090409028B
:100070006500020100803209040000000101000057
:100080000924010001090001010904010002010322
:1000900000000724010001410006240201010006BE
:1000A00024020202000924030103010201000924C1
:1000B000030204010101000905010308000A000010
:1000C00005250101010905810308000A0000052535
:1000D0000101031201100100000008C016E405012F
:1000E00000010200010011241FBECFE5D4E0DEBFF5
:1000F000CDBF10E0A0E6B0E0EAEAF7E002C005906C
:100100000D92A236B107D9F720E0A2E6B0E001C017
:100110001D92AB3BB207E1F714D345C371CFCF9328
:10012000209190002E31F1F02091900024FF07C023
:100130003091910028E823272093910003C02AE5FD
:1001400020939000262FFC01A2E9B0E081918D93CD
:1001500021501216DCF3C62F82E990E069D1CC5F02
:10016000C0939000CF910895CF93DF936091A10049
:10017000635067FDCBC080919E00CCE0D0E0C81BEF
:10018000D109CB55DF4F80919D00803118F4CE010D
:10019000D7D2BAC08D3209F0A8C0683009F0B4C017
:1001A00083EC809385008AE5809361001092620061
:1001B0002881822F807619F0CE0176D283C09A8171
:1001C0003C8110928E008981811113C02F712230E1
:1001D00051F4313841F49091900081E09E3109F062
:1001E00080E080938E0010928F002EE830E082E055
:1001F00064C0282F2D7F213081F491115BC03138EC
:1002000009F058C0813011F08EE101C08AE5809379
:1002100090008BE4809391004DC0853019F4909349
:10022000A20048C0863069F58B81813011F08230A0
:1002300019F4CE0125D221C08330F1F4911108C008
:100240008AE690E09093A00080939F0084E015C020
:10025000913041F48AE490E09093A00080939F0055
:1002600080E20BC0923041F486E290E09093A000CF
:1002700080939F0084E201C080E090E4909362004C
:1002800021C0883081F0893019F49093A40007C010
:100290008A3061F08B3071F48BE4809391008AE5B1
:1002A0008093900007C024EA30E002C02EE830E0DE
:1002B00081E003C02EE830E080E03093A00020937E
:1002C0009F0009C08F3F39F4988197FD8E8190E897
:1002D0009093620007C09F81911104C09E8198177E
:1002E00008F4892F809360000FC08091620087FF1F
:1002F0000BC0CE01E5D18F3F21F48EE180936100E8
:1003000003C08111109260001092A10080916100E1
:1003100084FF55C0809160008F3F09F450C0C82F02
:10032000893008F0C8E08C1B8093600090918500B4
:1003300088E8892780938500CC2309F44EC020915A
:10034000620027FF08C06C2F86E890E0AFD1C82F6D
:10035000893078F523C080919F009091A00026FFFE
:100360000AC0A6E8B0E0FC012C2F34913D933196F1
:100370002150D9F708C0DC01E6E8F0E02C2F3D91D0
:1003800031932150E1F72FEF2C0F30E02F5F3F4FDB
:10039000820F931F9093A00080939F006C2F86E89C
:1003A00090E046D0CC5FCC3041F08FEF809360007E
:1003B00004C08FEF80936000CEE1C093610084E1C0
:1003C00090B39C7081F48150D9F71092A2001092E2
:1003D0009C008AE58093900006C060E086E890E08B
:1003E00027D0C4E0E2CFDF91CF91089585B7836035
:1003F00085BF8BB780648BBFE0E9F0E08BE481833D
:100400008AE580830895A82FB92F80E090E041E02D
:1004100050EA609530E009C02D9182279795879525
:1004200010F084279527305EC8F36F5FA8F3089516
:10043000EADF8D939D930895CF93CFB7CF93DF934A
:10044000C395839BE9F7839B0BC0839B09C0839B68
:1004500007C0839B05C0839B03C0839B01C08EC0E4
:100460006F93C0919E00DD27CB55DF4F2F9365E53D
:10047000839B03C02F916F91E6CF0F931F934F93F0
:1004800020E040E15F9300B30C7003FB27F93F933A
:1004900050E03BE039C01C7040642F77012F5F5F54
:1004A0001EC0406810B31C702F7752501FC04064AC
:1004B00000B32F770C70D1F15F5F00C023C04062A2
:1004C00010B32F771C7091F15F5F00C025C00C70D6
:1004D0001027515012F45D5F0000115027952C3FFA
:1004E00010B3C8F61C700127015027952C3FC8F6A1
:1004F0004227499300B30C7010274F731150279572
:100500002C3FA8F64695469510B31C7079F001274C
:10051000015027952C3F98F66B5A60F3315000B389
:10052000B0F600C010E41ABF00271CC03B50319544
:10053000C31BD04010E41ABF0881033C21F10B34E7
:1005400011F120919C001981110F1213EDCF4A81F6
:10055000441F093669F10D3211F0013E29F74F7041
:1005600009F0042F0093A3003F915F914F911F91D9
:100570000F912F916F91CAB7C6FD62CFDF91CF91D6
:10058000CFBFCF9118952091A300222369F310913A
:10059000A100112391F5343092F13093A100209302
:1005A0009D0010919E003BE0311B30939E0027C0C0
:1005B0000091A10001300CF50AE54F7049F430912B
:1005C000610034FD1DC000936100C5E8D0E01CC08F
:1005D0003091900034FD14C000939000C1E9D0E048
:1005E00013C0052710E000C0000002BB1AC0052799
:1005F00010E0221F1DC010E021C04AE502C032ED0C
:10060000432FC4E1D0E032E011B31C60939A02B3EF
:1006100011BB5CE020E865E320FF052702BB2795BE
:1006200017951C3FF0F66695B8F7B1F720FF052740
:1006300002BB279517951C3FD0F62795179517FFF6
:10064000052700001C3F02BBB0F629913A9519F727
:10065000037F1091A200110FC651D04002BB11F0D0
:1006600010939C0010E41ABF086011B3137F402F51
:10067000437F54E05A95F1F702BB11BB42BB74CFE4
:10068000FC018381813041F483ED90E09093A000E0
:1006900080939F0082E108958EE690E09093A00001
:1006A00080939F0085E608958FEF0895FC011082E6
:1006B00011821282138214821582168287E00895B5
:1006C00081E00895CF93DF93FC013081232F2F70B9
:1006D000283029F0293039F483818F7711F4C098BC
:1006E00009C0C09A07C0223028F4653030F1645048
:1006F0003496EBCF90918400EF01219681E03B701E
:1007000044EF420F5991A92FB0E0AD59BF4F5C9310
:100710009F5F9F71813029F4253061F02F3039F4CB
:1007200009C0823021F4323029F0423018F08F5F56
:10073000843041F790938400D8CFDF91CF91089512
:10074000C1CF88E19EE00FB6F894A89581BD0FBE99
:1007500091BD91ED92BB92E291BB8C9894988C9A4A
:10076000949A94E099B98AB9C1E0C7BB18BA3EDE41
:100770007894C8BBA895F8DC5D9BFCCFE091830022
:10078000809184008E17B1F381E08E0F80938300F7
:10079000F0E0ED59FF4F80818CB9809183008F711B
:0A07A00080938300E7CFF894FFCFA9
:0207AA00FF5AF4
:00000001FF
