:1000000072C0E3C58BC08AC089C088C087C086C063
:1000100085C084C083C082C081C080C07FC07EC0D4
:100020007DC07CC07BC01201100100000008C0161A
:10003000E4050100010200010902650002010080DF
:100040003209040000000101000009240100010937
:10005000000101090401000201030000072401005E
:1000600001410006240201010006240202020009E7
:100070002403010301020100092403020401010118
:10008000000905010308000A000005250101010916
:1000900005810308000A0000052501010304030986
:1000A0000420036F00700065006E0068006100723C
:1000B00000640077006100720065002E0072006F1E
:1000C00000240356002D0055005300420020004D2F
:1000D00000490044004900200053006800690065A1
:1000E000006C0064000011241FBECFE5D4E0DEBF29
:1000F000CDBF10E0A0E6B0E0E8E2FEE002C005906F
:100100000D92A237B107D9F710E0A2E7B0E001C025
:100110001D92AF3DB107E1F7D9D184C671CFDF930E
:10012000CF9300D00F92CDB7DEB79A838983E98150
:10013000FA818381813049F486E290E09093C40093
:100140008093C30082E18B8308C088E390E09093A2
:10015000C4008093C30085E68B838B810F900F9042
:100160000F90CF91DF910895DF93CF9300D000D00F
:10017000CDB7DEB79C838B838B819C819A838983E7
:10018000E981FA818081882F90E0807690708032BA
:10019000910541F4E981FA81808188231CF081E096
:1001A000809377008FEF0F900F900F900F90CF916B
:1001B000DF910895DF93CF9300D00F92CDB7DEB7D4
:1001C0009A8389836B83E981FA81108289819A817C
:1001D000FC013196108289819A81FC01329610824D
:1001E00089819A81FC013396108289819A81FC0170
:1001F0003496108289819A81FC013596108289811A
:100200009A81FC013696108287E00F900F900F9034
:10021000CF91DF910895DF93CF9300D00F92CDB7A8
:10022000DEB79A8389836B8381E00F900F900F90E4
:10023000CF91DF910895DF93CF9300D00F92CDB788
:10024000DEB79A8389836B8389819A816B8106D01B
:100250000F900F900F90CF91DF910895DF93CF9380
:1002600000D000D00F92CDB7DEB79C838B836D8317
:10027000EB81FC8180818F708A83A8E3B0E0E8E3A2
:10028000F0E0908181E089278C938A818230D8F1D7
:1002900081E0898335C060917300462F50E08981E9
:1002A000282F30E08B819C81FC01E20FF31F8081BD
:1002B000FA01E857FF4F8083862F8F5F809373008A
:1002C000809173008F71809373008981813031F444
:1002D0008A818530C1F08A818F30A9F0898182308E
:1002E00061F48A81823079F08A81863061F08A8176
:1002F0008C3049F08A818D3031F089818F5F89831C
:100300008981843040F28D81853058F08B819C81C9
:100310009C012C5F3F4F8D81482F4450C901642FB1
:100320009DDF0F900F900F900F900F90CF91DF9166
:100330000895DF93CF9300D00F92CDB7DEB78A83B5
:10034000A8E3B0E0E8E3F0E0908181E089278C93B6
:1003500080917500882339F08A81873F11F41092CB
:1003600075001B8260C08A81883F68F08FE08093AF
:1003700080008A8180938100109282001092830015
:1003800081E08B8350C08A81882354F48A81803F26
:1003900029F481E0809375001B8245C0109276009D
:1003A000809176008823B9F48A8182958F70882F96
:1003B00090E0877090700196880F991F8093760067
:1003C0008A8182958F70809378008A8180937900EA
:1003D00010927B0027C080917600882F90E0FC016E
:1003E000E05AFF4F8081898380917600882F90E0CA
:1003F000817090700296FC01E858FF4F8A818083DB
:1004000089818F7080937600898188235CF480E8ED
:1004100090E028E730E0B90144E050E0FAD481E010
:100420008B8301C01B828B810F900F900F90CF9117
:10043000DF910895DF93CF9300D0CDB7DEB7E2E32D
:10044000F0E081ED8083E1E3F0E082E28083A1E3EC
:10045000B0E0E1E3F0E080818F7E8C93A2E3B0E036
:10046000E2E3F0E080818F7E8C93198207C01A82CC
:100470008A8181508A838A818823D1F7898181503A
:1004800089838981882399F7A1E3B0E0E1E3F0E073
:10049000808180618C93A2E3B0E0E2E3F0E08081B0
:1004A00080618C93E9E2F0E08FE18083EAE2F0E0A2
:1004B00088E18083E7E3F0E081E08083E8E3F0E037
:1004C00010820F900F90CF91DF910895DF93CF931B
:1004D000CDB7DEB788E190E02EE00FB6F894A8958E
:1004E00081BD0FBE21BDA6DF3ED310927700789468
:1004F000E8E3F0E081E08083A89525D1EBE2F0E02D
:100500008081882F90E0807290700097D1F0909158
:100510007300809174009817A1F0ACE2B0E02091D4
:100520007400822F90E0FC01E857FF4F80818C938C
:10053000822F8F5F80937400809174008F718093FD
:100540007400EBE2F0E08081882354F4ECE2F0E008
:100550008081EFDE982F80917200892B809372004A
:100560008091B400882F90E080719070009721F204
:1005700080917200882309F4BFCF80E890E064E0A6
:100580005CD010927200B8CFDF93CF93CDB7DEB7B7
:1005900028970FB6F894DEBF0FBECDBF9D838C8326
:1005A0006E8358874F838091B4008E31E9F1EF81DB
:1005B000F8858081882F90E080719070009749F0D5
:1005C000EF81F885918188E88927EF81F88581831B
:1005D00004C0EF81F8858AE580838F819885029633
:1005E0009B838A838E818983EC81FD818081EA816E
:1005F000FB8180838A819B8101969B838A838C8186
:100600009D8101969D838C83898181508983898115
:10061000181654F38F81988502966E81D2D28E81FE
:100620008C5FEF81F885808328960FB6F894DEBF43
:100630000FBECDBFCF91DF910895DF93CF9300D050
:100640000F92CDB7DEB79A8389836B8389819A81B4
:1006500024EB30E06B81A90197DF0F900F900F9092
:10066000CF91DF910895DF93CF93CDB7DEB72A976F
:100670000FB6F894DEBF0FBECDBF998788876A8713
:100680008A85882309F455C08091A800882334F412
:10069000888599856A858EDD8A874BC08A858F8398
:1006A0008091C3009091C4009E838D838091A800A7
:1006B000882F90E0807490700097F9F08D819E8172
:1006C0009B838A83EA81FB818491898389818C83DE
:1006D000E885F9858C81808388859985019699873D
:1006E00088878D819E8101969E838D838F81815025
:1006F0008F838F81882311F716C0ED81FE81808161
:10070000E885F9858083888599850196998788870A
:100710008D819E8101969E838D838F8181508F83F1
:100720008F81882351F78D819E819093C40080939F
:10073000C3008A852A960FB6F894DEBF0FBECDBFE0
:10074000CF91DF910895DF93CF9300D00F92CDB773
:10075000DEB78091C50083508B838B8188237CF02A
:100760008091C200282F30E08CE090E0821B930B38
:1007700087539F4F2B81622F2DD01092C5008091FF
:100780007000882F90E080719070009729F0809120
:1007900071008F3F09F095D184E18A830BC0E0E3BB
:1007A000F0E080818C7089838981882359F48A8163
:1007B00081508A838A81882391F71092C600109213
:1007C000C000BDD18A81C5D10F900F900F90CF91FD
:1007D000DF910895DF93CF93CDB7DEB728970FB69B
:1007E000F894DEBF0FBECDBF9F838E8368878E8156
:1007F0009F819D838C838091C100803128F48E81FC
:100800009F81688518DD5AC08091C1008D3209F042
:1008100040C08885883009F051C083EC8093A900DE
:100820008AE5809370001092A800EC81FD818081A0
:1008300080768A838A81882329F08E819F8194DC47
:100840008B8304C08C819D8142D08B838B818F3FB1
:1008500069F4EC81FD818081882324F4EC81FD81A1
:1008600086818B8380E88093A8000FC0EC81FD8196
:100870008781882351F4EC81FD8196818B819817C3
:1008800020F4EC81FD8186818B838B8180937100C4
:1008900015C08091A80088238CF48E819F81688583
:1008A000BADC898389818F3F21F48EE180937000C7
:1008B00005C08981882311F01092710028960FB627
:1008C000F894DEBF0FBECDBFCF91DF910895DF93C7
:1008D000CF93CDB7DEB72B970FB6F894DEBF0FBE20
:1008E000CDBF998788871F8282EB90E09E838D839E
:1008F000E885F98582818C83E885F98584818B83FD
:10090000ED81FE811082E885F98581818A838A8163
:100910008823F1F4E885F98580818F718983898145
:10092000823071F48B81813859F48091B4001B8638
:100930008E3111F481E08B87ED81FE818B85808380
:100940008D819E81FC013196108282E08F8348C0A8
:100950008A81813019F08A818330B1F48C818823B7
:1009600009F03EC08B818138D9F5E885F985818110
:10097000813019F48AE58A8702C08EE18A878A85E8
:100980008093B40094D02CC08A81853021F48C816E
:100990008093C60025C08A81863029F48885998590
:1009A0002FD08F8323C08A81883039F488EC90E07F
:1009B0009E838D8381E08F8313C08A81893029F4DF
:1009C0008C818093C800BBD00BC08A818A3019F417
:1009D00081E08F8305C08A818B3011F468D0AFD05D
:1009E0008D819E819093C4008093C3008F812B964C
:1009F0000FB6F894DEBF0FBECDBFCF91DF91089543
:100A0000DF93CF9300D000D000D0CDB7DEB79E8368
:100A10008D831C8280E48B83ED81FE8183818A83B8
:100A20008A81813029F48D819E8179DB8C8332C06B
:100A30008A81823029F48D819E8171DB8C832AC06A
:100A40008A81833039F5ED81FE81828189838981B4
:100A5000882349F484E08C838DE990E09093C4006E
:100A60008093C30017C08981813049F480E28C8370
:100A700081EA90E09093C4008093C3000BC0898109
:100A8000823041F484E28C8381EC90E09093C40046
:100A90008093C3008B818093A8008C8126960FB62B
:100AA000F894DEBF0FBECDBFCF91DF910895DF93E5
:100AB000CF93CDB7DEB78BE48093B500CF91DF91B4
:100AC0000895DF93CF9300D0CDB7DEB7809171004A
:100AD0008A838A81893010F088E08A83909171003E
:100AE0008A81292F281B822F809371009091A90061
:100AF00088E889278093A9008AEA90E06A81B3DDBB
:100B000089838981893070F48AEA90E0698159D0BB
:100B100089818C5F898389818C3048F48FEF809341
:100B2000710005C08EE189838FEF80937100898108
:100B3000809370000F900F90CF91DF910895DF9315
:100B4000CF93CDB7DEB78AE58093B400CF91DF9124
:100B50000895DF93CF930F92CDB7DEB789830F90BF
:100B6000CF91DF910895DF93CF93CDB7DEB7A5E5A1
:100B7000B0E0E5E5F0E0808183608C93ABE5B0E028
:100B8000EBE5F0E0808180648C9391DF8AE58093CF
:100B9000B400CF91DF910895A82FB92F80E090E0A5
:100BA00041E050EA609530E009C02D918227979589
:100BB000879510F084279527305EC8F36F5FA8F300
:100BC0000895EADF8D939D930895CF93CFB7CF9388
:100BD000DF93C395839BE9F7839B0BC0839B09C07D
:100BE000839B07C0839B05C0839B03C0839B01C07D
:100BF0008EC06F93C091C200DD27C753DF4F2F9384
:100C000065E5839B03C02F916F91E6CF0F931F93F0
:100C10004F9320E040E15F9300B30C7003FB27F992
:100C20003F9350E03BE039C01C7040642F77012FA8
:100C30005F5F1EC0406810B31C702F7752501FC0FA
:100C4000406400B32F770C70D1F15F5F00C023C008
:100C5000406210B32F771C7091F15F5F00C025C018
:100C60000C701027515012F45D5F00001150279551
:100C70002C3F10B3C8F61C700127015027952C3F5C
:100C8000C8F64227499300B30C7010274F731150D8
:100C900027952C3FA8F64695469510B31C7079F021
:100CA0000127015027952C3F98F66B5A60F331507D
:100CB00000B3B0F600C010E41ABF00271CC03B50C0
:100CC0003195C31BD04010E41ABF0881033C21F1C9
:100CD0000B3411F12091C0001981110F1213EDCFC7
:100CE0004A81441F093669F10D3211F0013E29F79E
:100CF0004F7009F0042F0093C7003F915F914F910F
:100D00001F910F912F916F91CAB7C6FD62CFDF91EE
:100D1000CF91CFBFCF9118952091C700222369F3BF
:100D20001091C500112391F5343092F13093C50034
:100D30002093C1001091C2003BE0311B3093C200F0
:100D400027C00091C50001300CF50AE54F7049F449
:100D50003091700034FD1DC000937000C9EAD0E0EE
:100D60001CC03091B40034FD14C00093B400C5EB36
:100D7000D0E013C0052710E000C0000002BB1AC07D
:100D8000052710E0221F1DC010E021C04AE502C067
:100D900032ED432FC4E1D0E032E011B31C60939AEE
:100DA00002B311BB5CE020E865E320FF052702BB2E
:100DB000279517951C3FF0F66695B8F7B1F720FF19
:100DC000052702BB279517951C3FD0F62795179549
:100DD00017FF052700001C3F02BBB0F629913A958A
:100DE00019F7037F1091C600110FC651D04002BB06
:100DF00011F01093C00010E41ABF086011B3137F04
:100E0000402F437F54E05A95F1F702BB11BB42BB20
:100E100074CFFB01DC0102C001900D9241505040A3
:080E2000D8F70895F894FFCF04
:100E2800000003820584078609888A008C000F8EDB
:020E38005AFF5F
:00000001FF
